:100000000C9434000C943E000C943E000C943E0082
:100010000C943E000C943E000C943E000C943E0068
:100020000C943E000C943E000C943E000C943E0058
:100030000C943E000C943E000C943E000C943E0048
:100040000C943E000C943E000C943E000C943E0038
:100050000C943E000C943E000C943E000C943E0028
:100060000C943E000C943E0011241FBECFEFD8E04C
:10007000DEBFCDBF0E9440000C945C000C940000D9
:1000800085E790E09DBD8CBD82E090E09EBD8DBD7A
:1000900083B194B128E0822794B983B98FEF99E6B0
:1000A00028E1815090402040E1F700C000001FBCD3
:0C00B0001EBC8EB59FB5ECCFF894FFCFBE
:00000001FF
