:100000000C9419010C9441010C9441010C94410190
:100010000C9441010C9441010C9441010C94410158
:100020000C9441010C9441010C9441010C94410148
:100030000C9441010C9441010C9441010C94410138
:100040000C9441010C9441010C9441010C94410128
:100050000C9441010C9447010C9441010C94410112
:100060000C9441010C944101000000000000002F9D
:1000700000000007000700147F147F14242A7F2A41
:1000800012C4C81026463649552250000503000008
:10009000001C2241000041221C0014083E081408E4
:1000A000083E0808000050300010101010100060CA
:1000B00060000020100804023E5149453E00427F86
:1000C000400042615149462141454B311814127F8D
:1000D0001027454545393C4A494930017109050316
:1000E0003649494936064949291E0036360000007E
:1000F0005636000008142241001414141414004150
:100100002214080201510906324959513E7E11114B
:10011000117E7F494949363E414141227F4141227A
:100120001C7F494949417F090909013E4149497AF2
:100130007F0808087F00417F41002040413F017F48
:10014000081422417F404040407F020C027F7F0420
:1001500008107F3E4141413E7F090909063E415159
:10016000215E7F09192946464949493101017F012C
:10017000013F4040403F1F2040201F3F4038403F4C
:100180006314081463070870080761514945430068
:100190007F414100552A552A550041417F00040204
:1001A0000102044040404040000102040020545439
:1001B00054787F48444438384444442038444448C0
:1001C0007F3854545418087E0901020C5252523E92
:1001D0007F0804047800447D40002040443D007FB7
:1001E0001028440000417F40007C041804787C08FB
:1001F00004047838444444387C1414140808141453
:10020000187C7C080404084854545420043F44409B
:10021000203C4040207C1C2040201C3C4030403C86
:1002200044281028440C5050503C4464544C440022
:10023000CF0311241FBECFEFD8E0DEBFCDBF11E04A
:10024000A0E0B1E0E0E6F8E002C005900D92A23D2A
:10025000B107D9F722E0A2EDB1E001C01D92A830AC
:10026000B207E1F711E0C9E1D1E004C02197FE0136
:100270000E941004C831D107C9F70E9434030C94BE
:100280002E040C940000439A0895439808951F92F9
:100290000F920FB60F9211242F933F934F935F93BA
:1002A0006F937F938F939F93AF93BF93EF93FF933E
:1002B0002091E401222309F445C08091D20130E06D
:1002C000E82FF0E091E0980FA901082E02C05595A3
:1002D00047950A94E2F740FF27C0893028F58093BC
:1002E000D2018091780020917900322F282F9093AD
:1002F000D201EE0FFF1FEC52FE4F31832083993065
:10030000A9F0E091D20110927C00E150E730A0F416
:10031000F0E0E357FE4F0C9410049901B301B501CE
:10032000B701B901BB01BD01892FCACF1092D2011B
:10033000E8CF81E080937C008091D301811102C0DD
:100340000E941A02FF91EF91BF91AF919F918F91FF
:100350007F916F915F914F913F912F910F900FBEC1
:100360000F901F90189582E0E5CF83E0E3CF84E003
:10037000E1CF85E0DFCF86E0DDCF87E0DBCFCF9335
:10038000DF93D82FC62F60E080680E94310260E0C2
:100390008C2F80640E9431028D2F880F880F8D0F63
:1003A00080930702CC0FCC0FCC0FC0930602DF91D5
:1003B000CF9108950E944B0243980C9404030E942D
:1003C0004B028CE791E00E94D4020C94DA01CF93A7
:1003D0000E944B0294E080EE2FE0280F2BB9E9B188
:1003E000EF70EF3021F4880F805F9150A9F7E80F8C
:1003F000E757E83778F7F0E0E050FF4FC081CA37A1
:1004000049F38C2F0E94A702CA3221F7CF910C9496
:10041000DA012A9A08952B9A2C980E9409022D9AA3
:100420001CBC80E58CBD239A2498229A259A81E0F1
:100430008DBD0895E8E7F0E08281806482830895AD
:100440008EBD0DB407FEFDCF8EB5089580910602D6
:10045000883220F4885F8093060208951092060285
:100460000895CF93C82F2998662399F0289A8091F0
:100470000702843548F48F5F809307028C2F0E9417
:100480002002299ACF910895109207020E94260215
:10049000F5CF2898F3CFCF93DF93C8EFD1E061E099
:1004A00080E00E9431022197D1F760E080E0DF9187
:1004B000CF910C94BF010E940902209A219A80E8F2
:1004C0009EE300000197E9F72A9880E89EE3000088
:1004D0000197E9F70E9409020E940B02299A60E045
:1004E00081E20E94310260E088EC0E94310260E00B
:1004F00086E00E94310260E083E10E94310260E008
:1005000080E20E94310260E08CE00E9431020C9493
:100510004B02CF93DF93C82F803320F4682F80E005
:100520000E94BF01D4E561E080E00E943102D15019
:10053000D1F7C03320F46C2F80E00E94BF01CC0FB4
:10054000CC0FCC0FC0930602DF91CF9108950F938B
:100550001F93CF93DF93C82F803230F40E944B0259
:1005600084E30E94A702C2E381E00E942002C052FD
:10057000DD0B25E02C9F80012D9F100D1124D0E074
:10058000C0E008591F4FF801EC0FFD1F849161E096
:10059000880F0E9431022196C530D105A1F7DF9165
:1005A000CF911F910F910895CF93DF93EC01899123
:1005B000882319F00E94A702FACFDF91CF91089506
:1005C0008091E5010E948902E091E50184E0E89FC5
:1005D000F0011124E251FE4F808191810C94D402EC
:1005E0008091E5010E94890288E791E00E94D4028F
:1005F000E091E50184E0E89FF0011124E251FE4F13
:10060000808191810C94D4020F931F93CF93DF9339
:100610000EEE11E0D0E0C0E08091E5018C171D06E0
:1006200021F488E791E00E94D402F8018081918151
:100630000E94D402C530D10561F00E94260260916B
:10064000060266956695669580E00E94BF0110924D
:10065000070221960C5F1F4FC630D105E9F6DF91E6
:10066000CF911F910F9108953B9A80EF8AB90E9414
:100670005B0284E991E09093EF018093EE018AEDB3
:1006800091E09093F1018093F0018AE991E09093D9
:10069000F3018093F20183E491E09093F50180935C
:1006A000F40186EA91E09093F7018093F60185E4E6
:1006B00091E09093F9018093F80182EB91E090939F
:1006C000FB018093FA018FED91E09093FD018093FF
:1006D000FC018EEB91E09093FF018093FE0187EE89
:1006E00091E09093010280930002789410927A0036
:1006F00083E080937A0080917A00886880937A0002
:100700001092D3010E941A028091E40181608093CB
:10071000E4010E941A028091E40182608093E40166
:100720000E94040360E080E00E94BF018091D60136
:100730009091D7018935924008F18091E501882395
:1007400039F00E94E0028091E50181508093E5013B
:100750000E94F0028091D4019091D5018935924098
:1007600008F3E091E50184E0E89FF0011124E251F3
:10077000FE4F0280F381E02D0995D4CF8091D60100
:100780009091D7018039914028F78091E50185301B
:10079000F8F60E94E0028091E5018F5FD7CF2091AB
:1007A000E6013091E7014091E8015091E901609143
:1007B000EA017091EB018091EC019091ED01A1E0D3
:1007C0000E9416042093E6013093E7014093E8016C
:1007D0005093E9016093EA017093EB018093EC017F
:1007E0009093ED010E942204D1F48DEC91E090935E
:1007F000EF018093EE019093F3018093F2019093C7
:10080000F7018093F6019093FB018093FA01909396
:10081000FF018093FE0190930302809302020895EA
:10082000EE0FFF1F0590F491E02D09940024A7FD21
:1008300000942A0F301D401D501D601D701D801D2D
:10084000901D08950024A7FD00942A173005400547
:10085000500560057005800590050895F894FFCF58
:10086000347A7A7A357A42367A7A7A7A7A7A7A7AEF
:100870007A7A7A7A7A7A7A7A7A7A7A7A7A7A7A7AD8
:100880007A7A7A7A7A7A7A7A7A7A7A7A7A7A7A7AC8
:100890007A7A7A7A7A7A7A7A7A7A7A7A7A7A7A7AB8
:1008A000377A7A7A387A43397A7A7A7A7A7A7A7AA5
:1008B0007A7A7A7A7A7A7A7A7A7A7A7A7A7A7A7A98
:1008C0002A7A7A7A307A44237A7A7A7A7A7A7A7AAF
:1008D000317A7A7A327A41332D3E2000436875634B
:1008E0006B204E6F72726973206368657773206244
:1008F00065657300526573657400427265772043C5
:100900006F666665650043616E63656C2042726563
:10091000770053686F772055736566756C0074793E
:10092000706520736F6D657468696E67002D2D2D7D
:020930000000C5
:00000001FF
