:100000000C9418010C9435010C9435010C943501B5
:100010000C9435010C9435010C9435010C94350188
:100020000C9435010C9435010C9435010C94350178
:100030000C9435010C9435010C9435010C94350168
:100040000C9435010C9435010C9437010C9460012B
:100050000C9435010C9408020C9435010C94350174
:100060000C9435010C943501000000000000002FB5
:1000700000000007000700147F147F14242A7F2A41
:1000800012C4C81026463649552250000503000008
:10009000001C2241000041221C0014083E081408E4
:1000A000083E0808000050300010101010100060CA
:1000B00060000020100804023E5149453E00427F86
:1000C000400042615149462141454B311814127F8D
:1000D0001027454545393C4A494930017109050316
:1000E0003649494936064949291E0036360000007E
:1000F0005636000008142241001414141414004150
:100100002214080201510906324959513E7E11114B
:10011000117E7F494949363E414141227F4141227A
:100120001C7F494949417F090909013E4149497AF2
:100130007F0808087F00417F41002040413F017F48
:10014000081422417F404040407F020C027F7F0420
:1001500008107F3E4141413E7F090909063E415159
:10016000215E7F09192946464949493101017F012C
:10017000013F4040403F1F2040201F3F4038403F4C
:100180006314081463070870080761514945430068
:100190007F414100552A552A550041417F00040204
:1001A0000102044040404040000102040020545439
:1001B00054787F48444438384444442038444448C0
:1001C0007F3854545418087E0901020C5252523E92
:1001D0007F0804047800447D40002040443D007FB7
:1001E0001028440000417F40007C041804787C08FB
:1001F00004047838444444387C1414140808141453
:10020000187C7C080404084854545420043F44409B
:10021000203C4040207C1C2040201C3C4030403C86
:1002200044281028440C5050503C4464544C440022
:1002300011241FBECFEFD8E0DEBFCDBF11E0A0E09C
:10024000B1E0E6EBF6E002C005900D92A831B107EF
:10025000D9F721E0A8E1B1E001C01D92A537B207AE
:10026000E1F70E94D0020C9459030C9400002F93E4
:100270002FB72F938F939F93EF93FF938091C0009D
:100280009091C600E0912001EF5FEF7120911F0176
:100290002E17A1F08C71E0932001F0E0ED5DFE4F90
:1002A000908390911E01892B80931E01FF91EF9105
:1002B0009F918F912F912FBF2F91189582E0F1CFB1
:1002C0008F938FB78F939F93EF93FF93909122011A
:1002D00080912101981799F0E0912101EF5FEF7172
:1002E000E0932101F0E0ED5BFE4F80818093C6003A
:1002F000FF91EF919F918F918FBF8F911895809172
:10030000C1008F7D8093C100F3CF10922201109223
:1003100021011092200110921F0197FF03C022E0DB
:100320002093C00090789093C5008093C40088E922
:100330008093C10086E08093C200089590912001CF
:1003400080911F019817B1F090911F019F5F9F71DD
:10035000E92FF0E0ED5DFE4F308120911E0190937A
:100360001F0110921E01822F90E0982F8827830F83
:10037000911D089580E091E00895909122019F5F82
:100380009F71209121012917E1F3E92FF0E0ED5B46
:10039000FE4F8083909322018091C1008062809300
:1003A000C1000895CF93DF93EC018991882319F060
:1003B0000E94BD01FACFDF91CF910895CF93DF93D3
:1003C000EC01FE0184912196882319F00E94BD0161
:1003D000F8CFDF91CF910895ECE7F0E08081806461
:1003E0008083EAE7F0E08081836080838081886891
:1003F000808378948081806480830895E0911901DE
:10040000F0E0EE0FFF1FE65EFE4F808191810895C0
:100410008F938FB78F939F93EF93FF93E8E7F0E06D
:1004200080819181909366018093650182818064CF
:100430008283EAE7F0E0808180648083FF91EF911E
:100440009F918F918FBF8F9118952A9A08952B9A1B
:100450002C980E9425022D9A1CBC80ED8CBD239AFD
:100460002498229A259A81E08DBD08958091630198
:10047000803320F4885F80936301089510926301B4
:1004800008958EBD0DB407FEFDCF8EB50895299851
:10049000662329F0289A0E944102299A08952898F3
:1004A000FACFCF93DF93C1ECDFE061E080E00E9400
:1004B00047022197D1F7DF91CF9108950E9425023D
:1004C000209A219A80E89EE300000197E9F72A9894
:1004D00080E89EE300000197E9F70E9425020E9450
:1004E0002702299A60E081E20E94470260E088ECDE
:1004F0000E94470260E086E00E94470260E083E1DC
:100500000E94470260E080E20E94470260E08CE0C7
:100510000E9447020C9451021F93CF93DF93C82F80
:10052000803240F40E94510284E30E948C0282E3F4
:100530000E948C0281E00E9441022C2F2052330B3A
:10054000C90125E0289FE001299FD00D1124C85939
:10055000DF4F15E0FE01849161E0880F0E944702A1
:1005600080916401843558F48F5F80936401115049
:1005700021961111EFCFDF91CF911F910895109225
:1005800064010E943602F3CFCF93DF93EC0189918F
:10059000882319F00E948C02FACFDF91CF91089541
:1005A000CDB7DEB7A0970FB6F894DEBF0FBECDBFB4
:1005B0000E945E0280E091E00E94C40210E000E030
:1005C00084E5E82EF12C809164019701281B310904
:1005D000021713073CF461E080E00E9447020F5FBE
:1005E0001F4FF1CF109264010E94360288E091E023
:1005F0000E94C40287E690E00E94850180E191E0BC
:100600000E94D20110927A0083E080937A00809158
:100610007A00886880937A0080917A008064809361
:100620007A0080916501909166014AE0BE016F5F9A
:100630007F4F0E942403CE0101960E94D20185E1E2
:1006400091E00E94D201EDCFBB274A3031F49923CB
:1006500022F4BDE2909581959F4F0C943003BB2707
:10066000FB015527AA27880F991FAA1FA41710F06E
:10067000A41B83955051B9F7A05DAA3308F0A95D7A
:10068000A193009779F7B111B1931192CB010C941A
:100690004903DC01FC01672F71917723E1F7329761
:1006A00004C07C916D9370836291AE17BF07C8F34D
:0606B0000895F894FFCF4D
:1006B600446973706C617900576F726B696E67007D
:0806C60054657374000A0D0075
:00000001FF
