:100000000C9418010C942A010C942A010C942A01D6
:100010000C942A010C942A010C942A010C942A01B4
:100020000C942A010C942A010C942A010C942A01A4
:100030000C942A010C942A010C942A010C942A0194
:100040000C942A010C942A010C942A010C942A0184
:100050000C942A010C942A010C942A010C942A0174
:100060000C942A010C942A01000000000000002FCB
:1000700000000007000700147F147F14242A7F2A41
:1000800012C4C81026463649552250000503000008
:10009000001C2241000041221C0014083E081408E4
:1000A000083E0808000050300010101010100060CA
:1000B00060000020100804023E5149453E00427F86
:1000C000400042615149462141454B311814127F8D
:1000D0001027454545393C4A494930017109050316
:1000E0003649494936064949291E0036360000007E
:1000F0005636000008142241001414141414004150
:100100002214080201510906324959513E7E11114B
:10011000117E7F494949363E414141227F4141227A
:100120001C7F494949417F090909013E4149497AF2
:100130007F0808087F00417F41002040413F017F48
:10014000081422417F404040407F020C027F7F0420
:1001500008107F3E4141413E7F090909063E415159
:10016000215E7F09192946464949493101017F012C
:10017000013F4040403F1F2040201F3F4038403F4C
:100180006314081463070870080761514945430068
:100190007F414100552A552A550041417F00040204
:1001A0000102044040404040000102040020545439
:1001B00054787F48444438384444442038444448C0
:1001C0007F3854545418087E0901020C5252523E92
:1001D0007F0804047800447D40002040443D007FB7
:1001E0001028440000417F40007C041804787C08FB
:1001F00004047838444444387C1414140808141453
:10020000187C7C080404084854545420043F44409B
:10021000203C4040207C1C2040201C3C4030403C86
:1002200044281028440C5050503C4464544C440022
:1002300011241FBECFEFD8E0DEBFCDBF22E0A0E08B
:10024000B1E001C01D92AE3FB207E1F70E949204F7
:100250000C94D0040C9400002998613041F4289A41
:100260008EBD0DB407FEFDCF8EB5299A089528984E
:10027000F7CFCF93C82F60E081E20E942C0160E0AD
:100280008C2F80680E942C0160E080E2CF910C945A
:100290002C01E6E0F1E088EF91E0DF019C011D9286
:1002A00021503040E1F7109203011092020187EFD4
:1002B00091E0909301018093000108958F30C8F47C
:1002C0006730B8F4482F4150550B9A0146E0429FE1
:1002D000C001439F900D112454E5659F800D911D31
:1002E000112484559109909305018093040180E0C5
:1002F000089581E008950F931F93CF93DF9320918A
:10030000040130910501409102015091030124172D
:10031000350724F4309303012093020190EE960FE9
:100320009C3508F06CE5813009F041C06052770BD4
:1003300085E0869FA001879F500D1124D901AA5FF7
:10034000BE4F90E080E048595F4FFA01E80FF91F77
:10035000E491EE0FED93019685309105B1F72B5F97
:100360003F4F309305012093040180910401909147
:10037000050120910001309101012817390724F46B
:100380009093010180930001FC01EA5FFE4F10820F
:10039000873FF1E09F0709F082C01092050110929B
:1003A000040182E0DF91CF911F910F910895823077
:1003B000E1F6C90184559109409102015091030170
:1003C0008417950724F4909303018093020197FD0D
:1003D0006DC0462F4052550BCA0145E0489FB00101
:1003E000499F700D1124D901AA5FBE4F50E040E033
:1003F00068597F4FDCE0C8E1FB01E40FF51FE49191
:10040000EE0F9E2F9270892F880F890F880F9E2FD5
:1004100094709D9F902D1124892B9E2F98709C9FE6
:10042000902D1124892BF0E094E0F595E7959A95AD
:10043000E1F7FE2FF2709F2F990F9F0F990F1E2F3C
:100440001170F12FFF0FF10F9F2BFE2FF470FD9F06
:10045000F02D11249F2BE870EC9FE02D11249E2B92
:100460008D0104551109F80180830F5F1F4FF801BA
:1004700080839C9311969C9311974F5F5F4F1296C8
:100480004530510509F0B8CFC9010B9668EF71E00E
:100490000E949F04909305018093040166CF01960A
:1004A000909305018093040180E07CCF81E07ACFB6
:1004B0000F931F93CF93DF93D82F8B01C0E0F801E8
:1004C000EC0FF11D8081882341F0682F8D2F0E9451
:1004D0007B01813011F0CF5FF2CFDF91CF911F917F
:1004E0000F9108951F93CF93DF93182FEB01FE0117
:1004F0008491882341F0682F812F0E947B018130F5
:1005000011F02196F4CFDF91CF911F910895853599
:1005100008F049C0613308F046C0262F269526957D
:10052000269590E034E5239F800D911D112467707E
:10053000FC01EA5FFE4F2081411121C041E050E003
:1005400001C0440F6A95EAF7409524232083209147
:100550000201309103018217930720F49093030165
:100560008093020120910001309101012817390781
:1005700020F4909301018093000180E008954130C0
:1005800041F441E050E001C0440F6A95EAF7242BA2
:10059000DDCF4230D9F641E050E001C0440F6A950A
:1005A000EAF72427D3CF81E008956F927F928F924C
:1005B0009F92AF92BF92CF92DF92EF92FF920F93F2
:1005C0001F93CF93DF93182F762ED42E622E822F77
:1005D000841B990B7C01862F811B990BEC019924BC
:1005E0009394F7FE05C0F194E194F10899249A944C
:1005F00088248394D7FF05C0D195C195D10988245B
:100600008A94402F6D2D812F0E948702C82E811160
:100610001FC0CC0FDD1FEE0CFF1CEC16FD0644F5D1
:10062000CE01959587955701A81AB90A171581F03B
:10063000B7FC03C0D90CAC1ABD0A180DAE0CBF1C18
:10064000402F6D2D812F0E948702882379F3C82EB9
:100650008C2DDF91CF911F910F91FF90EF90DF9044
:10066000CF90BF90AF909F908F907F906F900895A4
:10067000C701959587955E01A81AB90AD61441F36A
:10068000B7FC03C0180DAE18BF08D90CAC0EBD1EC8
:10069000402F6D2D812F0E948702882379F3D7CFB9
:1006A000CF92DF92FF920F931F93CF93DF93F82E99
:1006B000D62F84E58F15E8F06133D8F4C62FC41B1C
:1006C000641708F4C0E08F2D820F9927991F6C01E1
:1006D000CD17C0F41F2D1C151D044CF4402F6C2F9A
:1006E000812F0E948702811105C01F5FF4CFCF5F69
:1006F000EFCF81E0DF91CF911F910F91FF90DF90BD
:10070000CF90089580E0F6CFBF92CF92DF92EF9224
:10071000FF920F931F93CF93DF93D42FB22E12E04B
:10072000140F7C016C01C60ED11CC5E090E0EC14E6
:10073000FD0401F1953558F081E0DF91CF911F91D3
:100740000F91FF90EF90DF90CF90BF900895F70149
:1007500041917F014B9D402D112401E02D2F66E238
:100760008C2F0E9450032C2F210F9C2F813021F3BE
:10077000C22FDDCF80E0E1CFEF92FF920F931F9366
:10078000CF93DF93182FF62EC42FE22E853518F560
:1007900084E5861700F14133F0F480E38217D8F046
:1007A000161740F080E0DF91CF911F910F91FF90DD
:1007B000EF9008954217B0F7D12F402F6C2F8D2F57
:1007C0000E9487028111EFCFDF5FFD12F6CFCF5F6E
:1007D000EC12F2CFE7CF81E0E6CF48EF51E0BC0169
:1007E00086E091E00E94C70410920301109202017A
:1007F00087EF91E0909301018093000108951F938A
:10080000CF93DF93809102019091030197FF32C053
:100810001092030110920201809100019091010158
:1008200097FF32C01092010110920001C0910201A5
:10083000D0910301CE0164E570E00E949F04162F61
:1008400060E080680E942C0160E0812F80640E943B
:100850002C01CA5FDE4F2091000130910101CE01D1
:100860008650914028173907CCF061E089910E94A9
:100870002C01F1CF883F91407CF287EF91E090937B
:10088000030180930201C8CF883F91407CF287EF3B
:1008900091E09093010180930001C8CF87EF91E030
:1008A00090930301809302011092010110920001C4
:1008B000DF91CF911F9108952A9A84B18F6284B9F4
:1008C0002A982A9A2B9A2C982A9A2D9A1CBC80E551
:1008D0008CBD81E08DBD299A60E081E20E942C01EF
:1008E00060E088EC0E942C0160E086E00E942C0110
:1008F00060E083E10E942C0160E080E20E942C0114
:1009000060E08CE00E942C0188EF91E0909303015D
:100910008093020110920101109200010E9449018E
:100920000C94FF030E945C0461E482E00E947B015E
:100930000E94FF0362E482E00E947B01FFCF97FBED
:10094000072E16F4009407D077FD09D00E94B30457
:1009500007FC05D03EF4909581959F4F08957095C2
:1009600061957F4F0895AA1BBB1B51E107C0AA1FC9
:10097000BB1FA617B70710F0A61BB70B881F991F40
:100980005A95A9F780959095BC01CD010895FB017A
:10099000DC0102C005900D9241505040D8F70895F7
:0409A000F894FFCFF9
:00000001FF
