:100000000C9434000C943E000C943E000C943E0082
:100010000C943E000C943E000C943E000C943E0068
:100020000C943E000C943E000C943E000C943E0058
:100030000C943E000C943E000C943E000C943E0048
:100040000C943E000C943E000C943E000C943E0038
:100050000C943E000C943E000C943E000C943E0028
:100060000C943E000C943E0011241FBECFEFD8E04C
:10007000DEBFCDBF0E9440000C9466000C940000CF
:1000800085B196B1806496B985B986B197B1806A19
:1000900097B986B9ECB5FDB585E790E0918380838B
:1000A000EEB5FFB581E090E091838083259A239A95
:1000B00090E285B1892785B92FEF39E688E1215093
:1000C00030408040E1F700C00000F3CFF894FFCF4C
:00000001FF
