:100000000C9434000C943E000C943E000C943E0082
:100010000C943E000C943E000C943E000C943E0068
:100020000C943E000C943E000C943E000C943E0058
:100030000C943E000C943E000C943E000C943E0048
:100040000C943E000C943E000C943E000C943E0038
:100050000C943E000C943E000C943E000C943E0028
:100060000C943E000C943E0011241FBECFEFD8E04C
:10007000DEBFCDBF0E9440000C9461000C940000D4
:1000800085B196B1806496B985B986B197B1806A19
:1000900097B986B9ECB5FDB585E790E0918380838B
:1000A000EEB5FFB581E090E091838083259A2FEF34
:1000B00089E698E1215080409040E1F700C00000BF
:0600C000F6CFF894FFCF1B
:00000001FF
