:100000000C9419010C9441010C9441010C94410190
:100010000C9441010C9441010C9441010C94410158
:100020000C9441010C9441010C9441010C94410148
:100030000C9441010C9441010C9441010C94410138
:100040000C9441010C9441010C9441010C94410128
:100050000C9441010C9447010C9441010C94410112
:100060000C9441010C944101000000000000002F9D
:1000700000000007000700147F147F14242A7F2A41
:1000800012C4C81026463649552250000503000008
:10009000001C2241000041221C0014083E081408E4
:1000A000083E0808000050300010101010100060CA
:1000B00060000020100804023E5149453E00427F86
:1000C000400042615149462141454B311814127F8D
:1000D0001027454545393C4A494930017109050316
:1000E0003649494936064949291E0036360000007E
:1000F0005636000008142241001414141414004150
:100100002214080201510906324959513E7E11114B
:10011000117E7F494949363E414141227F4141227A
:100120001C7F494949417F090909013E4149497AF2
:100130007F0808087F00417F41002040413F017F48
:10014000081422417F404040407F020C027F7F0420
:1001500008107F3E4141413E7F090909063E415159
:10016000215E7F09192946464949493101017F012C
:10017000013F4040403F1F2040201F3F4038403F4C
:100180006314081463070870080761514945430068
:100190007F414100552A552A550041417F00040204
:1001A0000102044040404040000102040020545439
:1001B00054787F48444438384444442038444448C0
:1001C0007F3854545418087E0901020C5252523E92
:1001D0007F0804047800447D40002040443D007FB7
:1001E0001028440000417F40007C041804787C08FB
:1001F00004047838444444387C1414140808141453
:10020000187C7C080404084854545420043F44409B
:10021000203C4040207C1C2040201C3C4030403C86
:1002200044281028440C5050503C4464544C440022
:10023000E10311241FBECFEFD8E0DEBFCDBF11E038
:10024000A0E0B1E0E4E8F8E002C005900D92A63F1E
:10025000B107D9F722E0A6EFB1E001C01D92AC32A0
:10026000B207E1F711E0C9E1D1E004C02197FE0136
:100270000E942204C831D107C9F70E9446030C949A
:1002800040040C940000439A0895439808951F92E7
:100290000F920FB60F9211242F933F934F935F93BA
:1002A0006F937F938F939F93AF93BF93EF93FF933E
:1002B00020910802222309F445C08091F60130E024
:1002C000E82FF0E091E0980FA901082E02C05595A3
:1002D00047950A94E2F740FF27C0893028F58093BC
:1002E000F6018091780020917900322F282F909389
:1002F000F601EE0FFF1FE850FE4F31832083993047
:10030000A9F0E091F60110927C00E150E730A0F4F2
:10031000F0E0E357FE4F0C9422049901B301B501BC
:10032000B701B901BB01BD01892FCACF1092F601F7
:10033000E8CF81E080937C008091F701811102C0B9
:100340000E942902FF91EF91BF91AF919F918F91F0
:100350007F916F915F914F913F912F910F900FBEC1
:100360000F901F90189582E0E5CF83E0E3CF84E003
:10037000E1CF85E0DFCF86E0DDCF87E0DBCFCF9335
:10038000DF93D82FC62F60E080680E94400260E0B3
:100390008C2F80640E9440028D2F880F880F8D0F54
:1003A00080932B02CC0FCC0FCC0FC0932A02DF918D
:1003B000CF9108950E94670243980C94FC020E941A
:1003C000670285EB91E00E94F0020E945A028DECD8
:1003D00091E00E94F0020E945A028BEE91E00E948E
:1003E000F0020C94DA010E9467028091F80190916A
:1003F000F90180399140D0F094E080EE2FE0280F91
:100400002BB9E9B1EF70EF3021F4880F805F915084
:10041000A9F7E80FE757E83740F7F0E0E050FF4F63
:1004200080818A3711F30E94C302DFCF0C94DA0176
:100430002A9A08952B9A2C980E9418022D9A1CBC77
:1004400080E58CBD239A2498229A259A81E08DBD5F
:100450000895E8E7F0E082818064828308958091C6
:100460002A02883220F4885F80932A02089510922D
:100470002A0208958EBD0DB407FEFDCF8EB50895F6
:10048000CF93C82F2998662399F0289A80912B0240
:10049000843548F48F5F80932B028C2F0E943A02A0
:1004A000299ACF91089510922B020E942F02F5CF26
:1004B0002898F3CF0E942F0260912A0266956695D4
:1004C000669580E00E94BF0110922B020895CF93A1
:1004D000DF93C8EFD1E061E080E00E944002219705
:1004E000D1F760E080E0DF91CF910C94BF010E94D2
:1004F0001802209A219A80E89EE300000197E9F70C
:100500002A9880E89EE300000197E9F70E9418020C
:100510000E941A02299A60E081E20E94400260E093
:1005200088EC0E94400260E086E00E94400260E0A9
:1005300083E10E94400260E080E20E94400260E0AD
:100540008CE00E9440020C946702CF93DF93C82F87
:10055000803320F4682F80E00E94BF01D4E561E081
:1005600080E00E944002D150D1F7C03320F46C2FBC
:1005700080E00E94BF01CC0FCC0FCC0FC0932A02A9
:10058000DF91CF9108950F931F93CF93DF93C82FDF
:10059000803230F40E94670284E30E94C302C2E307
:1005A00081E00E943A02C052DD0B25E02C9F8001C1
:1005B0002D9F100D1124D0E0C0E008591F4FF80105
:1005C000EC0FFD1F849161E0880F0E94400221968C
:1005D000C530D105A1F7DF91CF911F910F910895FB
:1005E000CF93DF93EC018991882319F00E94C30215
:1005F000FACFDF91CF9108950F931F93CF93DF939D
:1006000002E112E0D0E0C0E0809109028C171D06E3
:1006100021F488E791E00E94F002F8018081918145
:100620000E94F002C530D10511F00E945A022196B5
:100630000C5F1F4FC630D10539F7DF91CF911F9165
:100640000F910895809109020E94A502E09109028C
:1006500084E0E89FF0011124EE5EFD4F80819181DE
:100660000C94F002809109020E94A50288E791E0B3
:100670000E94F002E091090284E0E89FF001112459
:10068000EE5EFD4F808191810C94F0023B9A80EFE9
:100690008AB90E9477028CE791E0909313028093CD
:1006A00012028AED91E0909315028093140282E881
:1006B00091E0909317028093160283E491E0909367
:1006C0001902809318028EE891E090931B028093A8
:1006D0001A0285E491E090931D0280931C028AE93E
:1006E00091E090931F0280931E028FED91E0909312
:1006F00021028093200286EA91E090932302809366
:10070000220283EF91E09093250280932402789453
:1007100010927A0083E080937A0080917A00886852
:1007200080937A001092F7010E94290280910802BA
:100730008160809308020E942902809108028260F1
:10074000809308020E94FC0260E080E00E94BF01EA
:100750008091FA019091FB018935924008F18091D6
:100760000902882339F00E942203809109028150F6
:10077000809309020E9432038091F8019091F9015F
:100780008935924008F3E091090284E0E89FF00186
:100790001124EE5EFD4F0280F381E02D0995D4CF48
:1007A0008091FA019091FB018039914028F7809166
:1007B00009028530F8F60E942203809109028F5FBA
:1007C000D7CF20910A0230910B0240910C02509138
:1007D0000D0260910E0270910F02809110029091B3
:1007E0001102A1E00E94280420930A0230930B0218
:1007F00040930C0250930D0260930E0270930F020F
:1008000080931002909311020E943404D1F482EF7D
:1008100091E09093130280931202909317028093B9
:10082000160290931B0280931A0290931F028093EA
:100830001E029093230280932202909327028093BA
:1008400026020895EE0FFF1F0590F491E02D099404
:100850000024A7FD00942A0F301D401D501D601D6F
:10086000701D801D901D08950024A7FD00942A1777
:100870003005400550056005700580059005089518
:04088000F894FFCF1A
:10088400347A7A7A357A42367A7A7A7A7A7A7A7ACB
:100894007A7A7A7A7A7A7A7A7A7A7A7A7A7A7A7AB4
:1008A4007A7A7A7A7A7A7A7A7A7A7A7A7A7A7A7AA4
:1008B4007A7A7A7A7A7A7A7A7A7A7A7A7A7A7A7A94
:1008C400377A7A7A387A43397A7A7A7A7A7A7A7A81
:1008D4007A7A7A7A7A7A7A7A7A7A7A7A7A7A7A7A74
:1008E4002A7A7A7A307A44237A7A7A7A7A7A7A7A8B
:1008F400317A7A7A327A41332D3E2000526573651B
:1009040074004272657720436F66666565004361D3
:100914006E63656C20427265770053686F7720556B
:10092400736566756C007479706520736F6D65749A
:1009340068696E6700436875636B204E6F727269F5
:1009440073206368657773206265657300436F661F
:1009540066656520697320746865206D6F73742003
:100964006865616C746879203A290031303130311E
:0609740030002D2D2D00C6
:00000001FF
