:100000000C9418010C9435010C9435010C943501B5
:100010000C9435010C9435010C9435010C94350188
:100020000C9435010C9435010C9435010C94350178
:100030000C9435010C9435010C9435010C94350168
:100040000C9435010C9435010C944C010C94750101
:100050000C9435010C940C030C9435010C9435016F
:100060000C9435010C943501000000000000002FB5
:1000700000000007000700147F147F14242A7F2A41
:1000800012C4C81026463649552250000503000008
:10009000001C2241000041221C0014083E081408E4
:1000A000083E0808000050300010101010100060CA
:1000B00060000020100804023E5149453E00427F86
:1000C000400042615149462141454B311814127F8D
:1000D0001027454545393C4A494930017109050316
:1000E0003649494936064949291E0036360000007E
:1000F0005636000008142241001414141414004150
:100100002214080201510906324959513E7E11114B
:10011000117E7F494949363E414141227F4141227A
:100120001C7F494949417F090909013E4149497AF2
:100130007F0808087F00417F41002040413F017F48
:10014000081422417F404040407F020C027F7F0420
:1001500008107F3E4141413E7F090909063E415159
:10016000215E7F09192946464949493101017F012C
:10017000013F4040403F1F2040201F3F4038403F4C
:100180006314081463070870080761514945430068
:100190007F414100552A552A550041417F00040204
:1001A0000102044040404040000102040020545439
:1001B00054787F48444438384444442038444448C0
:1001C0007F3854545418087E0901020C5252523E92
:1001D0007F0804047800447D40002040443D007FB7
:1001E0001028440000417F40007C041804787C08FB
:1001F00004047838444444387C1414140808141453
:10020000187C7C080404084854545420043F44409B
:10021000203C4040207C1C2040201C3C4030403C86
:1002200044281028440C5050503C4464544C440022
:1002300011241FBECFEFD8E0DEBFCDBF11E0A0E09C
:10024000B1E0ECE8F8E002C005900D92AC30B107E7
:10025000D9F723E0ACE0B1E001C01D92A136B207AE
:10026000E1F70E9487030C943D040C940000E6E53E
:10027000F1E088EF91E0DF019C011D9221503040B8
:10028000E1F7109255011092540187EF91E090939D
:1002900053018093520108952F932FB72F938F937B
:1002A0009F93EF93FF938091C0009091C600E091DF
:1002B0000F01EF5FEF7120910E012E17A1F08C71ED
:1002C000E0930F01F0E0EE5EFE4F908390910D0100
:1002D000892B80930D01FF91EF919F918F912F9129
:1002E0002FBF2F91189582E0F1CF8F938FB78F9307
:1002F0009F93EF93FF9390911101809110019817B4
:1003000099F0E0911001EF5FEF71E0931001F0E0E0
:10031000EE5CFE4F80818093C600FF91EF919F912C
:100320008F918FBF8F9118958091C1008F7D8093A1
:10033000C100F3CF109211011092100110920F0121
:1003400010920E0197FF03C022E02093C000907826
:100350009093C5008093C40088E98093C10086E033
:100360008093C200089590910F0180910E0198171B
:10037000B1F090910E019F5F9F71E92FF0E0EE5E6A
:10038000FE4F308120910D0190930E0110920D01CE
:10039000822F90E0982F8827830F911D089580E089
:1003A00091E00895909111019F5F9F71209110013C
:1003B0002917E1F3E92FF0E0EE5CFE4F8083909384
:1003C00011018091C10080628093C1000895CF9394
:1003D000DF93EC018991882319F00E94D201FACFB2
:1003E000DF91CF910895CF93DF93EC01FE018491CB
:1003F0002196882319F00E94D201F8CFDF91CF9186
:1004000008952998613029F4289A0E947B03299A3B
:1004100008952898FACF0F931F93CF93DF93D0E0DE
:10042000C0E004E510E080910C019801281B31091F
:10043000C217D30734F461E080E00E9401022196E4
:10044000F2CF10920C01DF91CF911F910F9108957F
:10045000CF93C82F60E081E20E94010260E08C2F00
:1004600080680E94010260E080E2CF910C9401025A
:100470001F93CF93DF93809154019091550197FF83
:1004800031C0109255011092540180915201909107
:10049000530197FF31C01092530110925201C09145
:1004A0005401D0915501CE0164E570E00E94DA0359
:1004B000162F60E080680E94010260E0812F806456
:1004C0000E94010280915201909153018C179D0767
:1004D000ECF0FE01EA5AFE4F61E080810E940102C9
:1004E0002196F0CF883F914084F287EF91E090937E
:1004F000550180935401C9CF883F914084F287EF22
:1005000091E09093530180935201C9CF87EF91E01E
:10051000909355018093540110925301109252010F
:10052000DF91CF911F9108952A9A84B18F6284B987
:100530002A982A9A2B9A2C982A9A2D9A1CBC80E5E4
:100540008CBD81E08DBD299A60E081E20E940102AC
:1005500060E088EC0E94010260E086E00E940102F7
:1005600060E083E10E94010260E080E20E940102FB
:1005700060E08CE00E94010288EF91E090935501C9
:100580008093540110925301109252010E9437013E
:100590000C9438021F93CF93DF93C82F803240F41E
:1005A0000E94370184E30E94CA0282E30E94CA02C9
:1005B00081E00E947B032C2F2052330BC90125E0E0
:1005C000289FE001299FD00D1124C859DF4F15E065
:1005D000FE01849161E0880F0E94010280910C016C
:1005E000843558F48F5F80930C01115021961111BE
:1005F000EFCFDF91CF911F91089510920C01F5CFAD
:10060000CF93DF93EC018991882319F00E94CA02ED
:10061000FACFDF91CF9108951F920F920FB60F92EC
:1006200011242F933F934F935F936F937F938F93F7
:100630009F93AF93BF93EF93FF9320916003222387
:10064000E9F180914E0330E0E82FF0E091E0980F5F
:10065000A901082E02C0559547950A94E2F740FF7C
:100660001FC08930E8F480934E0320917800809178
:100670007900382F90934E03EE0FFF1FE05BFC4F85
:1006800031832083993071F0E0914E0310927C0009
:10069000E150E73068F4F0E0E15CFB4F0C94EE03CE
:1006A000892FD2CF10924E03EFCF81E080937C0050
:1006B00080914F03811102C00E948103FF91EF914D
:1006C000BF91AF919F918F917F916F915F914F916A
:1006D0003F912F910F900FBE0F901F90189582E0C1
:1006E000E5CF83E0E3CF84E0E1CF85E0DFCF86E0B4
:1006F000DDCF87E0DBCF8EBD0DB407FEFDCF8EB51D
:100700000895E8E7F0E08281806482830895CDB7A0
:10071000DEB7A0970FB6F894DEBF0FBECDBF87E659
:1007200090E00E949A01789480E091E00E94E701B5
:1007300010927A0083E080937A0080917A00886832
:1007400080937A000E94810380916003816080938E
:10075000600310924F030E948103809160038260C6
:100760008093600310924F03809150039091510346
:1007700000915203109153034AE0BE016F5F7F4F17
:100780000E940804CE0101960E94E70185E091E0F5
:100790000E94E7014AE0BE016F5F7F4FC8010E94DF
:1007A0000804CE0101960E94E70189E091E00E94D1
:1007B000E701DACF97FB072E16F4009407D077FDF8
:1007C00009D00E94F40307FC05D03EF49095819572
:1007D0009F4F0895709561957F4F0895EE0FFF1F0D
:1007E0000590F491E02D0994AA1BBB1B51E107C0B1
:1007F000AA1FBB1FA617B70710F0A61BB70B881FB1
:10080000991F5A95A9F780959095BC01CD0108953F
:10081000BB274A3031F4992322F4BDE290958195AB
:100820009F4F0C941404BB27FB015527AA27880F60
:10083000991FAA1FA41710F0A41B83955051B9F754
:10084000A05DAA3308F0A95DA193009779F7B111D3
:10085000B1931192CB010C942D04DC01FC01672FA4
:1008600071917723E1F7329704C07C916D93708387
:100870006291AE17BF07C8F30895F894FFCF5503F0
:0C0880006F0371037303750377037903A2
:0C088C005465737400207C20000A0D00ED
:00000001FF
