:100000000C9434000C9451000C9451000C94510049
:100010000C9451000C9451000C9451000C9451001C
:100020000C9451000C9451000C9451000C9451000C
:100030000C9451000C9451000C9451000C945100FC
:100040000C9451000C9451000C9453000C947C00BF
:100050000C9451000C9408010C9451000C94510024
:100060000C9451000C94510011241FBECFEFD8E026
:10007000DEBFCDBF11E0A0E0B1E0EEEFF2E002C0E4
:1000800005900D92A630B107D9F721E0A6E0B1E0C6
:1000900001C01D92AB34B207E1F70E9454010C94E9
:1000A0007D010C9400002F932FB72F938F939F9374
:1000B000EF93FF938091C0009091C600E0910801FA
:1000C000EF5FEF71209107012E17A1F08C71E09383
:1000D0000801F0E0E55FFE4F908390910601892BC7
:1000E00080930601FF91EF919F918F912F912FBFE8
:1000F0002F91189582E0F1CF8F938FB78F939F93B5
:10010000EF93FF9390910A0180910901981799F05C
:10011000E0910901EF5FEF71E0930901F0E0E55D27
:10012000FE4F80818093C600FF91EF919F918F9148
:100130008FBF8F9118958091C1008F7D8093C100F2
:10014000F3CF10920A011092090110920801109247
:10015000070197FF03C022E02093C000907890939E
:10016000C5008093C40088E98093C10086E0809335
:10017000C200089590910801809107019817B1F08D
:10018000909107019F5F9F71E92FF0E0E55FFE4FBF
:100190003081209106019093070110920601822F71
:1001A00090E0982F8827830F911D089580E091E0BB
:1001B000089590910A019F5F9F712091090129176D
:1001C000E1F3E92FF0E0E55DFE4F808390930A01B3
:1001D0008091C10080628093C1000895CF93DF9326
:1001E000EC018991882319F00E94D900FACFDF91A0
:1001F000CF910895CF93DF93EC01FE018491219676
:10020000882319F00E94D900F8CFDF91CF9108958B
:100210001895E0B7F1B7AEB5BFB580838C918081FA
:100220000895CF93C62F880F8E770E9409018C2FD7
:10023000CF910C9409012E9A84B1806A84B9ECB5EF
:10024000FDB585E78083EEB5FFB581E080836FE083
:100250000E9411016DE88AE20E9411016EE38BE2B7
:100260000E9411016EE18CE20E94110160E08DE2BA
:100270000E94110160E485E10E9411016DE381E1BA
:100280000E94110184E10E9409018EEF0E94090180
:1002900080E00E940901982F937029F4682F636011
:1002A00084E10C941101089587E690E00E94A1007A
:1002B00078942E9A84B1806A84B9ECB5FDB585E74F
:1002C0008083EEB5FFB581E080830E941B01259AF3
:1002D000239A8CB59DB5C0E280E091E00E94EE00CB
:1002E00085B18C2785B92FEF89E698E121508040B0
:0E02F0009040E1F700C00000EFCFF894FFCF80
:0602FE00544553540000BA
:00000001FF
