:100000000C9419010C9441010C9441010C94410190
:100010000C9441010C9441010C9441010C94410158
:100020000C9441010C9441010C9441010C94410148
:100030000C9441010C9441010C9441010C94410138
:100040000C9441010C9441010C9441010C94410128
:100050000C9441010C9449010C9441010C94410110
:100060000C9441010C944101000000000000002F9D
:1000700000000007000700147F147F14242A7F2A41
:1000800012C4C81026463649552250000503000008
:10009000001C2241000041221C0014083E081408E4
:1000A000083E0808000050300010101010100060CA
:1000B00060000020100804023E5149453E00427F86
:1000C000400042615149462141454B311814127F8D
:1000D0001027454545393C4A494930017109050316
:1000E0003649494936064949291E0036360000007E
:1000F0005636000008142241001414141414004150
:100100002214080201510906324959513E7E11114B
:10011000117E7F494949363E414141227F4141227A
:100120001C7F494949417F090909013E4149497AF2
:100130007F0808087F00417F41002040413F017F48
:10014000081422417F404040407F020C027F7F0420
:1001500008107F3E4141413E7F090909063E415159
:10016000215E7F09192946464949493101017F012C
:10017000013F4040403F1F2040201F3F4038403F4C
:100180006314081463070870080761514945430068
:100190007F414100552A552A550041417F00040204
:1001A0000102044040404040000102040020545439
:1001B00054787F48444438384444442038444448C0
:1001C0007F3854545418087E0901020C5252523E92
:1001D0007F0804047800447D40002040443D007FB7
:1001E0001028440000417F40007C041804787C08FB
:1001F00004047838444444387C1414140808141453
:10020000187C7C080404084854545420043F44409B
:10021000203C4040207C1C2040201C3C4030403C86
:1002200044281028440C5050503C4464544C440022
:10023000A00311241FBECFEFD8E0DEBFCDBF11E079
:10024000A0E0B1E0E2E0F8E002C005900D92AA342F
:10025000B107D9F721E0AAE4B1E001C01D92A038AE
:10026000B207E1F711E0C9E1D1E004C02197FE0136
:100270000E94E103C831D107C9F70E9414030C940E
:10028000FF030C940000439A0895439808950000DA
:1002900008951F920F920FB60F9211242F933F9340
:1002A0004F935F936F937F938F939F93AF93BF937E
:1002B000EF93FF9320915C01222309F445C08091C4
:1002C0004A0130E0E82FF0E091E0980FA901082EF4
:1002D00002C0559547950A94E2F740FF27C0893040
:1002E00028F580934A018091780020917900322F7F
:1002F000282F90934A01EE0FFF1FE45BFE4F3183DE
:1003000020839930A9F0E0914A0110927C00E150DD
:10031000E730A0F4F0E0E157FE4F0C94E1039B01BD
:10032000B501B701B901BB01BD01BF01892FCACF1A
:1003300010924A01E8CF81E080937C0080914B01CC
:10034000811102C00E94FA01FF91EF91BF91AF911C
:100350009F918F917F916F915F914F913F912F91DD
:100360000F900FBE0F901F90189582E0E5CF83E0AD
:10037000E3CF84E0E1CF85E0DFCF86E0DDCF87E02B
:10038000DBCFCF93DF93D82FC62F60E080680E9429
:10039000110260E08C2F80640E9411028D2F880F63
:1003A000880F8D0F80937F01CC0FCC0FCC0FC093A3
:1003B0007E01DF91CF9108950E942B0243980C9407
:1003C000E4020E942B0284E091E00E94B4020C94AB
:1003D000DC012A9A08952B9A2C980E94E9012D9A03
:1003E0001CBC80E58CBD239A2498229A259A81E032
:1003F0008DBD0895E8E7F0E08281806482830895EE
:100400008EBD0DB407FEFDCF8EB5089580917E019F
:10041000883220F4885F80937E01089510927E01D7
:100420000895CF93C82F2998662399F0289A809130
:100430007F01843548F48F5F80937F018C2F0E9469
:100440000002299ACF91089510927F010E9406021E
:10045000F5CF2898F3CFCF93DF93C8EFD1E061E0D9
:1004600080E00E9411022197D1F760E080E0DF91E7
:10047000CF910C94C1010E94E901209A219A80E851
:100480009EE300000197E9F72A9880E89EE30000C8
:100490000197E9F70E94E9010E94EB01299A60E0C7
:1004A00081E20E94110260E088EC0E94110260E08B
:1004B00086E00E94110260E083E10E94110260E088
:1004C00080E20E94110260E08CE00E9411020C9414
:1004D0002B02CF93DF93C82F803320F4682F80E066
:1004E0000E94C101D4E561E080E00E941102D15078
:1004F000D1F7C03320F46C2F80E00E94C101CC0FF3
:10050000CC0FCC0FC0937E01DF91CF9108950F9354
:100510001F93CF93DF93C82F803230F40E942B02B9
:1005200084E30E948702C2E381E00E940002C0527D
:10053000DD0B25E02C9F80012D9F100D1124D0E0B4
:10054000C0E008591F4FF801EC0FFD1F849161E0D6
:10055000880F0E9411022196C530D105A1F7DF91C5
:10056000CF911F910F910895CF93DF93EC01899163
:10057000882319F00E948702FACFDF91CF91089566
:1005800080915D010E946902E0915D0184E0E89F35
:10059000F0011124EA59FE4F808191810C94B4023C
:1005A00080915D010E94690280E091E00E94B402A6
:1005B000E0915D0184E0E89FF0011124EA59FE4FCB
:1005C000808191810C94B4020F931F93CF93DF939A
:1005D00006E611E0D0E0C0E080915D018C171D06B9
:1005E00021F480E091E00E94B402F80180819181C1
:1005F0000E94B402C530D10561F00E9406026091EC
:100600007E0166956695669580E00E94C101109214
:100610007F0121960C5F1F4FC630D105E9F6DF91AF
:10062000CF911F910F9108953B9A80EF8AB90E9454
:100630003B028CE191E090936701809366018CED21
:1006400091E0909369018093680182E291E0909338
:100650006B0180936A0183E491E090936D01809334
:100660006C018EE291E090936F0180936E0185E4BE
:1006700091E090937101809370018AE391E09093EF
:1006800073018093720181EE91E0909375018093E4
:100690007401789410927A0083E080937A008091BC
:1006A0007A00886880937A0010924B010E94FA01C8
:1006B00080915C01816080935C010E94FA018091CD
:1006C0005C01826080935C010E94E40260E080E053
:1006D0000E94C10180914E0190914F01C0914C0147
:1006E000D0914D01893522E09207E8F080915D01BB
:1006F000882339F00E94C00280915D01815080936F
:100700005D010E94D002C935D24000F3E0915D0145
:1007100024E0E29FF0011124EA59FE4F0280F381A8
:10072000E02D0995D3CF8039914068F780915D0124
:10073000853038F70E94C00280915D018F5FDFCF66
:1007400020915E0130915F01409160015091610103
:1007500060916201709163018091640190916501E3
:10076000A1E00E94E70320935E0130935F01409374
:100770006001509361016093620170936301809303
:100780006401909365010E94F303D1F486E491E043
:10079000909367018093660190936B0180936A0147
:1007A00090936F0180936E01909373018093720117
:1007B000909377018093760190937B0180937A01E7
:1007C0000895EE0FFF1F0590F491E02D0994002489
:1007D000A7FD00942A0F301D401D501D601D701D87
:1007E000801D901D08950024A7FD00942A17300550
:1007F0004005500560057005800590050895F89442
:02080000FFCF28
:100802002D3E2000436875636B204E6F72726973D0
:10081200206368657773206265657300526573654E
:1008220074004272657720436F66666565004361B6
:100832006E63656C20427265770053686F7720554E
:0A084200736566756C002D2D2D0006
:00000001FF
