:100000000C9434000C9446000C9446000C9446006A
:100010000C9446000C9446000C9446000C94460048
:100020000C9446000C9446000C9446000C94460038
:100030000C9446000C9446000C9446000C94460028
:100040000C9446000C9446000C9477000C94A50088
:100050000C9446000C9436010C9446000C94460017
:100060000C9446000C94460011241FBECFEFD8E03C
:10007000DEBFCDBF21E0A0E0B1E001C01D92A634FB
:10008000B207E1F70E947C010C943F020C9400003F
:1000900084B1837C84B984B18C6284B981ED8CBDD8
:1000A00081E08DBD0895362FFB012E2F231B2417D1
:1000B00050F4DC012D91CD012EBD0DB407FEFDCF16
:1000C0002EB52193F2CF0895282FFC018E2F821B8D
:1000D000861730F481918EBD0DB407FEFDCFF6CFAB
:1000E00008958EBD0DB407FEFDCF8EB508951F9205
:1000F0000F920FB60F9211242F938F939F93EF932C
:10010000FF938091C0009091C600E0910201EF5FE3
:10011000EF71209101012E17B1F08C71E093020173
:10012000F0E0EB5FFE4F908390910001892B80936C
:100130000001FF91EF919F918F912F910F900FBE32
:100140000F901F90189582E0EFCF1F920F920FB67D
:100150000F9211248F939F93EF93FF93909104013B
:10016000809103019817A9F0E0910301EF5FEF710F
:10017000E0930301F0E0EB5DFE4F80818093C600C9
:10018000FF91EF919F918F910F900FBE0F901F9055
:1001900018958091C1008F7D8093C100F1CF10929E
:1001A000040110920301109202011092010197FFC5
:1001B00003C022E02093C00090789093C500809304
:1001C000C40088E98093C10086E08093C20008954E
:1001D00090910201809101019817B1F09091010175
:1001E0009F5F9F71E92FF0E0EB5FFE4F3081209120
:1001F00000019093010110920001822F90E0982F4E
:100200008827830F911D089580E091E008959091D3
:1002100004019F5F9F71209103012917E1F3E92FEA
:10022000F0E0EB5DFE4F8083909304018091C1006C
:1002300080628093C1000895CF93DF93EC01899190
:10024000882319F00E940701FACFDF91CF9108951A
:10025000CF93DF93EC01FE0184912196882319F05E
:100260000E940701F8CFDF91CF9108951F920F925E
:100270000FB60F9211240F900FBE0F901F9018957C
:10028000CF93C62F880F8E770E9471008C2FCF914D
:100290000C9471000E9471008EEF0E94710080E04A
:1002A0000C9471000E9448006FE081E00E944001C0
:1002B0006DE88AE20E9440016EE38BE20E944001F9
:1002C0006EE18CE20E94400160E08DE20E944001FC
:1002D00060E485E10E9440016DE381E10E944001FC
:1002E00084E10E944A01982F937029F4682F63607B
:1002F00084E10C9440010895CF93DF9300D000D0A7
:100300001F92CDB7DEB787E690E00E94CF007894C9
:10031000259A19821A821B821C820E9452012E9AEF
:1003200084B1806A84B98CB587E78CBD8DB581E0D6
:100330008DBD93E9992E20E2822E60E08DE00E942F
:10034000400199828A8284E00E944A01682F6F7777
:1003500084E00E9440018AE00E944A01682F6068A0
:100360008AE00E94400160E081E00E9440016981D2
:1003700089E00E9440016A8189E00E9440016CE0AE
:1003800081E00E9440018DE00E944A01682F606870
:100390008DE00E94400184E00E944A01182F817381
:1003A00009F048C084E00E944A01182FC12CD12CCA
:1003B00076018DE00E944A01682F6F778DE00E94E0
:1003C0004001CD28CE28CF2809F4B7CF86E00E947F
:1003D0004A018B7109F0B1CF10FD31C081E08D83EE
:1003E0008AE00E944A01C82E8CE00E944A0181E006
:1003F000CC2021F08C2D813108F080E18E010F5F3F
:100400001F4F412C512C32015801C82ED12CF12CF8
:10041000E12C4C145D046E047F04A0F489E00E947A
:100420004A01F80181938F01FFEF4F1A5F0A6F0AAB
:100430007F0AEFCFC12CD12C7601C394BACFE2E072
:10044000ED83CECF99818D81813049F48A818927CE
:100450002B8182272C8182272D8128136ECF911129
:100460000AC08A81811107C08B81811104C08C81EF
:10047000882309F462CFC5010E941C015ECFF89465
:02048000FFCFAC
:00000001FF
