:100000000C9418010C9435010C9435010C943501B5
:100010000C9435010C9435010C9435010C94350188
:100020000C9435010C9435010C9435010C94350178
:100030000C9435010C9435010C9435010C94350168
:100040000C9435010C9435010C9435010C94350158
:100050000C9435010C9439010C9435010C94350144
:100060000C9435010C943501000000000000002FB5
:1000700000000007000700147F147F14242A7F2A41
:1000800012C4C81026463649552250000503000008
:10009000001C2241000041221C0014083E081408E4
:1000A000083E0808000050300010101010100060CA
:1000B00060000020100804023E5149453E00427F86
:1000C000400042615149462141454B311814127F8D
:1000D0001027454545393C4A494930017109050316
:1000E0003649494936064949291E0036360000007E
:1000F0005636000008142241001414141414004150
:100100002214080201510906324959513E7E11114B
:10011000117E7F494949363E414141227F4141227A
:100120001C7F494949417F090909013E4149497AF2
:100130007F0808087F00417F41002040413F017F48
:10014000081422417F404040407F020C027F7F0420
:1001500008107F3E4141413E7F090909063E415159
:10016000215E7F09192946464949493101017F012C
:10017000013F4040403F1F2040201F3F4038403F4C
:100180006314081463070870080761514945430068
:100190007F414100552A552A550041417F00040204
:1001A0000102044040404040000102040020545439
:1001B00054787F48444438384444442038444448C0
:1001C0007F3854545418087E0901020C5252523E92
:1001D0007F0804047800447D40002040443D007FB7
:1001E0001028440000417F40007C041804787C08FB
:1001F00004047838444444387C1414140808141453
:10020000187C7C080404084854545420043F44409B
:10021000203C4040207C1C2040201C3C4030403C86
:1002200044281028440C5050503C4464544C440022
:1002300011241FBECFEFD8E0DEBFCDBF11E0A0E09C
:10024000B1E0EAE4F6E002C005900D92A236B107F3
:10025000D9F721E0A2E6B1E001C01D92A837B207AC
:10026000E1F70E94AD020C941C030C940000000006
:1002700008951F920F920FB60F9211242F933F9360
:100280004F935F936F937F938F939F93AF93BF939E
:10029000EF93FF93209174012223E9F18091620191
:1002A00030E0E82FF0E091E0980FA901082E02C09D
:1002B000559547950A94E2F740FF1FC08930E8F44E
:1002C000809362012091780080917900382F90937B
:1002D0006201EE0FFF1FEC59FE4F318320839930EE
:1002E00071F0E091620110927C00E150E73068F417
:1002F000F0E0E25EFC4F0C941603892FD2CF1092EF
:100300006201EFCF81E080937C00809163018111D5
:1003100002C00E94C401FF91EF91BF91AF919F91E4
:100320008F917F916F915F914F913F912F910F909E
:100330000FBE0F901F90189582E0E5CF83E0E3CFCA
:1003400084E0E1CF85E0DFCF86E0DDCF87E0DBCF63
:10035000E8E7F0E0128283E082838281886882830A
:100360001092630108952A9A08952B9A2C980E945E
:10037000B3012D9A1CBC80E58CBD239A2498229A47
:10038000259A81E08DBD0895E8E7F0E082818064E0
:10039000828308958EBD0DB407FEFDCF8EB50895FE
:1003A0002998662329F0289A0E94CA01299A08955B
:1003B0002898FACF80917601883220F4885F809364
:1003C000760108951092760108950F931F93CF93AD
:1003D000DF93D0E0C0E004E510E080917701980160
:1003E000281B3109C217D30734F461E080E00E9472
:1003F000D0012196F2CF10927701DF91CF911F911A
:100400000F910C94DA01CF93DF93C0ECDFE061E051
:1004100080E00E94D0012197D1F70E94E5018091F0
:1004200076018111FACFDF91CF9108950E94B30137
:10043000209A219A80E89EE300000197E9F72A9824
:1004400080E89EE300000197E9F70E94B3010E9453
:10045000B501299A60E081E20E94D00160E088EC59
:100460000E94D00160E086E00E94D00160E083E15C
:100470000E94D00160E080E20E94D00160E08CE048
:100480000E94D0010C9403021F93CF93DF93C82FD7
:10049000803230F40E94030284E30E944402C2E3EB
:1004A00081E00E94CA012C2F2052330BC90125E0A4
:1004B000289FE001299FD00D1124C859DF4F15E076
:1004C000FE01849161E0880F0E94D0018091770144
:1004D000843558F48F5F8093770111502196111164
:1004E000EFCFDF91CF911F910895109277010E9475
:1004F000DA01F3CFCF93DF93EC018991882319F0D0
:100500000E944402FACFDF91CF9108950F931F9379
:10051000CF93DF930E94030200E011E0D0E0C0E03F
:10052000809175018C171D0621F48CE091E00E94EA
:100530007A02F801819191918F010E947A02C5306F
:10054000D10511F00E94E5012196C630D10541F791
:10055000DF91CF911F910F91089580EF8AB90E948A
:10056000160280E191E090930101809300018DE1FA
:1005700091E0909303018093020189E291E09093CE
:1005800005018093040188E391E090930701809333
:10059000060183E491E0909309018093080181E5CD
:1005A00091E090930B0180930A010E94A8010E94A0
:1005B000C401809174018160809374010E94C40120
:1005C0008091740182608093740178940E94A801E4
:1005D0000E94C401809174018160809374010E9423
:1005E000C40180917401826080937401C6E02091FF
:1005F00064013091650180917501293592E03907D8
:1006000058F0863020F48F5F8093750102C01092FD
:1006100075010E948602EBCF2039314040F78823D4
:1006200011F08150F1CFC0937501F3CFEE0FFF1F92
:100630000590F491E02D0994F894FFCF82019C017C
:0A0640009E01A001A201A401A60181
:10064A005E015E015E015E015E015E012D3E2000DB
:10065A0048656C6C6F20576F726C64210054657327
:10066A007420576F726C64210057656C636F6D65F7
:10067A0020576F726C64210054656120576F726C49
:10068A006421004C616D62646120576F726C642151
:10069A000052616D626F20576F726C6421002D2DBC
:0206AA002D0021
:00000001FF
