:100000000C9418010C9435010C9435010C943501B5
:100010000C9435010C9435010C9435010C94350188
:100020000C9435010C9435010C9435010C94350178
:100030000C9435010C9435010C9435010C94350168
:100040000C9435010C9435010C9435010C94350158
:100050000C9435010C9439010C9435010C94350144
:100060000C9435010C943501000000000000002FB5
:1000700000000007000700147F147F14242A7F2A41
:1000800012C4C81026463649552250000503000008
:10009000001C2241000041221C0014083E081408E4
:1000A000083E0808000050300010101010100060CA
:1000B00060000020100804023E5149453E00427F86
:1000C000400042615149462141454B311814127F8D
:1000D0001027454545393C4A494930017109050316
:1000E0003649494936064949291E0036360000007E
:1000F0005636000008142241001414141414004150
:100100002214080201510906324959513E7E11114B
:10011000117E7F494949363E414141227F4141227A
:100120001C7F494949417F090909013E4149497AF2
:100130007F0808087F00417F41002040413F017F48
:10014000081422417F404040407F020C027F7F0420
:1001500008107F3E4141413E7F090909063E415159
:10016000215E7F09192946464949493101017F012C
:10017000013F4040403F1F2040201F3F4038403F4C
:100180006314081463070870080761514945430068
:100190007F414100552A552A550041417F00040204
:1001A0000102044040404040000102040020545439
:1001B00054787F48444438384444442038444448C0
:1001C0007F3854545418087E0901020C5252523E92
:1001D0007F0804047800447D40002040443D007FB7
:1001E0001028440000417F40007C041804787C08FB
:1001F00004047838444444387C1414140808141453
:10020000187C7C080404084854545420043F44409B
:10021000203C4040207C1C2040201C3C4030403C86
:1002200044281028440C5050503C4464544C440022
:1002300011241FBECFEFD8E0DEBFCDBF11E0A0E09C
:10024000B1E0ECE6F6E002C005900D92A633B107EE
:10025000D9F721E0A6E3B1E001C01D92AC34B207AA
:10026000E1F70E94CA020C9434030C9400000000D1
:1002700008951F920F920FB60F9211242F933F9360
:100280004F935F936F937F938F939F93AF93BF939E
:10029000EF93FF9320914801222309F445C08091F8
:1002A000360130E0E82FF0E091E0980FA901082E28
:1002B00002C0559547950A94E2F740FF27C0893060
:1002C00028F5809336018091780020917900322FB3
:1002D000282F90933601EE0FFF1FE85CFE4F31830D
:1002E00020839930A9F0E091360110927C00E15012
:1002F000E730A0F4F0E0E158FE4F0C942E038B01A0
:10030000A501A701A901AB01AD01AF01892FCACF9A
:1003100010923601E8CF81E080937C008091370114
:10032000811102C00E94DD01FF91EF91BF91AF9159
:100330009F918F917F916F915F914F913F912F91FD
:100340000F900FBE0F901F90189582E0E5CF83E0CD
:10035000E3CF84E0E1CF85E0DFCF86E0DDCF87E04B
:10036000DBCFCF93DF93D82FC62F60E080680E9449
:10037000F40160E08C2F80640E94F4018D2F880FBF
:10038000880F8D0F80934B01CC0FCC0FCC0FC093F7
:100390004A01DF91CF9108952A9A08952B9A2C98BB
:1003A0000E94CC012D9A1CBC80E58CBD239A249818
:1003B000229A259A81E08DBD0895E8E7F0E08281D8
:1003C0008064828308958EBD0DB407FEFDCF8EB587
:1003D000089580914A01883220F4885F80934A0111
:1003E000089510924A010895CF93C82F2998662343
:1003F00099F0289A80914B01843548F48F5F80935F
:100400004B018C2F0E94E301299ACF9108951092FD
:100410004B010E94E901F5CF2898F3CFCF93DF93EA
:10042000C8EFD1E061E080E00E94F4012197D1F7AC
:1004300060E080E0DF91CF910C94B1010E94CC018B
:10044000209A219A80E89EE300000197E9F72A9814
:1004500080E89EE300000197E9F70E94CC010E942A
:10046000CE01299A60E081E20E94F40160E088EC0C
:100470000E94F40160E086E00E94F40160E083E104
:100480000E94F40160E080E20E94F40160E08CE0F0
:100490000E94F4010C940E020F931F93CF93DF93ED
:1004A000C82F803230F40E940E0284E30E944C0276
:1004B000C2E381E00E94E301C052DD0B25E02C9FE6
:1004C00080012D9F100D1124D0E0C0E008591F4F6E
:1004D000F801EC0FFD1F849161E0880F0E94F40188
:1004E0002196C530D105A1F7DF91CF911F910F91D2
:1004F0000895CF93DF93EC018991882319F00E942E
:100500004C02FACFDF91CF91089560914901603399
:1005100018F480E00E94B1018CE091E00E94790221
:10052000E0914901F0E0EE0FFF1FE050FF4F8081A6
:1005300091810C9479020F931F93CF93DF9300E086
:1005400011E0D0E0C0E0809149018C171D0621F434
:100550008CE091E00E947902F801819191918F01E4
:100560000E947902C530D10561F00E94E9016091D5
:100570004A0166956695669580E00E94B1011092E9
:100580004B012196C630D105F1F6DF91CF911F9135
:100590000F91089580EF8AB90E941E0280E191E0D8
:1005A000909301018093000185E191E09093030114
:1005B000809302018AE191E0909305018093040108
:1005C00081E291E0909307018093060187E291E038
:1005D00090930901809308018DE291E090930B01C3
:1005E00080930A01789410927A0083E080937A00D5
:1005F00080917A00886880937A00109237010E9477
:10060000DD01809148018160809348010E94DD01F5
:10061000809148018260809348010E949B0260E0C3
:1006200080E00E94B10180913A0190913B018935AF
:1006300022E0920750F080914901882319F08150FF
:10064000809349010E948502EACF8039914038F7B2
:10065000809149018530B0F78F5FF2CFEE0FFF1F19
:0C0660000590F491E02D0994F894FFCF70
:10066C003201320132013201320132012D3E2000C1
:10067C004F6E65210054776F2100546872656521B7
:10068C0000466F75722100466976652100536978C2
:06069C0021002D2D2D00B0
:00000001FF
