:100000000C9418010C9435010C9435010C943501B5
:100010000C9435010C9435010C9435010C94350188
:100020000C9435010C9435010C9435010C94350178
:100030000C9435010C9435010C9435010C94350168
:100040000C9435010C9435010C9435010C94350158
:100050000C9435010C9435010C9435010C94350148
:100060000C9435010C943501000000000000002FB5
:1000700000000007000700147F147F14242A7F2A41
:1000800012C4C81026463649552250000503000008
:10009000001C2241000041221C0014083E081408E4
:1000A000083E0808000050300010101010100060CA
:1000B00060000020100804023E5149453E00427F86
:1000C000400042615149462141454B311814127F8D
:1000D0001027454545393C4A494930017109050316
:1000E0003649494936064949291E0036360000007E
:1000F0005636000008142241001414141414004150
:100100002214080201510906324959513E7E11114B
:10011000117E7F494949363E414141227F4141227A
:100120001C7F494949417F090909013E4149497AF2
:100130007F0808087F00417F41002040413F017F48
:10014000081422417F404040407F020C027F7F0420
:1001500008107F3E4141413E7F090909063E415159
:10016000215E7F09192946464949493101017F012C
:10017000013F4040403F1F2040201F3F4038403F4C
:100180006314081463070870080761514945430068
:100190007F414100552A552A550041417F00040204
:1001A0000102044040404040000102040020545439
:1001B00054787F48444438384444442038444448C0
:1001C0007F3854545418087E0901020C5252523E92
:1001D0007F0804047800447D40002040443D007FB7
:1001E0001028440000417F40007C041804787C08FB
:1001F00004047838444444387C1414140808141453
:10020000187C7C080404084854545420043F44409B
:10021000203C4040207C1C2040201C3C4030403C86
:1002200044281028440C5050503C4464544C440022
:1002300011241FBECFEFD8E0DEBFCDBF11E0A0E09C
:10024000B1E0E4E4F5E002C005900D92A432B107FC
:10025000D9F723E0A4E2B1E001C01D92A132B207B8
:10026000E1F70E9461020C94A0020C940000E9E204
:10027000F1E088EF91E0DF019C011D9221503040B8
:10028000E1F7109228011092270187EF91E09093F7
:1002900026018093250108952998613029F4289A30
:1002A0000E945B02299A08952898FACF0F931F9312
:1002B000CF93DF93D0E0C0E004E510E0809124010B
:1002C0009801281B3109C217D30734F461E080E09C
:1002D0000E944C012196F2CF10922401DF91CF9120
:1002E0001F910F910895CF93C82F60E081E20E9483
:1002F0004C0160E08C2F80680E944C0160E080E23D
:10030000CF910C944C011F93CF93DF9380912701E1
:100310009091280197FF32C0109228011092270176
:10032000809125019091260197FF32C010922601FD
:1003300010922501C0912701D0912801CE0164E5DA
:1003400070E00E947802162F60E080680E944C01E5
:1003500060E0812F80640E944C01C75DDE4F2091D8
:10036000250130912601CE01895291402817390785
:10037000CCF061E089910E944C01F1CF883F91401F
:100380007CF287EF91E09093280180932701C8CFFA
:10039000883F91407CF287EF91E090932601809313
:1003A0002501C8CF87EF91E0909328018093270122
:1003B0001092260110922501DF91CF911F9108958F
:1003C0002A9A84B18F6284B92A982A9A2B9A2C98F7
:1003D0002A9A2D9A1CBC80E58CBD81E08DBD299A9E
:1003E00060E081E20E944C0160E088EC0E944C01D8
:1003F00060E086E00E944C0160E083E10E944C01D5
:1004000060E080E20E944C0160E08CE00E944C01C0
:1004100088EF91E0909328018093270110922601A4
:10042000109225010E9437010C9483010F931F93B2
:10043000CF93DF93C82F803240F40E94370184E3CA
:100440000E94160282E30E94160281E00E945B0273
:10045000C052DD0B25E02C9F80012D9F100D112433
:10046000D0E0C0E008591F4FF801EC0FFD1F849148
:1004700061E0880F0E944C0180912401843560F472
:100480008F5F809324012196C530D10569F7DF91F4
:10049000CF911F910F91089510922401F4CFCF9323
:1004A000DF93EC018991882319F00E941602FACF9C
:1004B000DF91CF9108958EBD0DB407FEFDCF8EB5AF
:1004C00008950E94E0010E94370180E091E00E94BF
:1004D0004F020E9456018FE091E00E944F020E945D
:1004E00056010E9456018CE191E00E944F02FFCF1D
:1004F00097FB072E16F4009407D077FD09D00E94D1
:100500008C0207FC05D03EF4909581959F4F08958D
:10051000709561957F4F0895AA1BBB1B51E107C0E1
:10052000AA1FBB1FA617B70710F0A61BB70B881F83
:10053000991F5A95A9F780959095BC01CD01089512
:04054000F894FFCF5D
:1005440073636865697373204C79726F6974004EC4
:100554006569736573204E6F6B69610031303130AA
:040564003130000032
:00000001FF
