:100000000C9418010C9435010C9435010C943501B5
:100010000C9435010C9435010C9435010C94350188
:100020000C9435010C9435010C9435010C94350178
:100030000C9435010C9435010C9435010C94350168
:100040000C9435010C9435010C944C010C94750101
:100050000C9435010C941D020C9435010C9435015F
:100060000C9435010C943501000000000000002FB5
:1000700000000007000700147F147F14242A7F2A41
:1000800012C4C81026463649552250000503000008
:10009000001C2241000041221C0014083E081408E4
:1000A000083E0808000050300010101010100060CA
:1000B00060000020100804023E5149453E00427F86
:1000C000400042615149462141454B311814127F8D
:1000D0001027454545393C4A494930017109050316
:1000E0003649494936064949291E0036360000007E
:1000F0005636000008142241001414141414004150
:100100002214080201510906324959513E7E11114B
:10011000117E7F494949363E414141227F4141227A
:100120001C7F494949417F090909013E4149497AF2
:100130007F0808087F00417F41002040413F017F48
:10014000081422417F404040407F020C027F7F0420
:1001500008107F3E4141413E7F090909063E415159
:10016000215E7F09192946464949493101017F012C
:10017000013F4040403F1F2040201F3F4038403F4C
:100180006314081463070870080761514945430068
:100190007F414100552A552A550041417F00040204
:1001A0000102044040404040000102040020545439
:1001B00054787F48444438384444442038444448C0
:1001C0007F3854545418087E0901020C5252523E92
:1001D0007F0804047800447D40002040443D007FB7
:1001E0001028440000417F40007C041804787C08FB
:1001F00004047838444444387C1414140808141453
:10020000187C7C080404084854545420043F44409B
:10021000203C4040207C1C2040201C3C4030403C86
:1002200044281028440C5050503C4464544C440022
:1002300011241FBECFEFD8E0DEBFCDBF11E0A0E09C
:10024000B1E0ECEBF7E002C005900D92A830B107E9
:10025000D9F723E0A8E0B1E001C01D92A036B207B3
:10026000E1F70E9445030C94DC030C940000E8E5E0
:10027000F1E088EF91E0DF019C011D9221503040B8
:10028000E1F7109257011092560187EF91E0909399
:1002900055018093540108952F932FB72F938F9377
:1002A0009F93EF93FF938091C0009091C600E091DF
:1002B0001101EF5FEF71209110012E17A1F08C71E9
:1002C000E0931101F0E0EC5EFE4F908390910F01FE
:1002D000892B80930F01FF91EF919F918F912F9127
:1002E0002FBF2F91189582E0F1CF8F938FB78F9307
:1002F0009F93EF93FF9390911301809112019817B0
:1003000099F0E0911201EF5FEF71E0931201F0E0DC
:10031000EC5CFE4F80818093C600FF91EF919F912E
:100320008F918FBF8F9118958091C1008F7D8093A1
:10033000C100F3CF1092130110921201109211011B
:100340001092100197FF03C022E02093C000907824
:100350009093C5008093C40088E98093C10086E033
:100360008093C20008959091110180911001981717
:10037000B1F0909110019F5F9F71E92FF0E0EC5E6A
:10038000FE4F308120910F019093100110920F01C8
:10039000822F90E0982F8827830F911D089580E089
:1003A00091E00895909113019F5F9F712091120138
:1003B0002917E1F3E92FF0E0EC5CFE4F8083909386
:1003C00013018091C10080628093C1000895CF9392
:1003D000DF93EC018991882319F00E94D201FACFB2
:1003E000DF91CF910895CF93DF93EC01FE018491CB
:1003F0002196882319F00E94D201F8CFDF91CF9186
:100400000895ECE7F0E0808180648083EAE7F0E023
:1004100080818360808380818868808378948081F4
:10042000806480830895E0910901F0E0EE0FFF1FE2
:10043000E65FFE4F8081918108958F938FB78F93F0
:100440009F93EF93FF93E8E7F0E080819181909391
:10045000510380935003828180648283EAE7F0E055
:10046000808180648083FF91EF919F918F918FBFF6
:100470008F9118952998613029F4289A0E94790360
:10048000299A08952898FACF0F931F93CF93DF935B
:10049000D0E0C0E004E510E080910E019801281B37
:1004A0003109C217D30734F461E080E00E943A02B8
:1004B0002196F2CF10920E01DF91CF911F910F91F3
:1004C0000895CF93C82F60E081E20E943A0260E075
:1004D0008C2F80680E943A0260E080E2CF910C94F9
:1004E0003A021F93CF93DF93809156019091570169
:1004F00097FF31C01092570110925601809154011C
:100500009091550197FF31C01092550110925401FE
:10051000C0915601D0915701CE0164E570E00E9470
:100520007F03162F60E080680E943A0260E0812F0E
:1005300080640E943A0280915401909155018C1779
:100540009D07ECF0FE01E85AFE4F61E080810E94B9
:100550003A022196F0CF883F914084F287EF91E0F4
:100560009093570180935601C9CF883F914084F200
:1005700087EF91E09093550180935401C9CF87EFA5
:1005800091E090935701809356011092550110927B
:100590005401DF91CF911F9108952A9A84B18F62FF
:1005A00084B92A982A9A2B9A2C982A9A2D9A1CBC9C
:1005B00080E58CBD81E08DBD299A60E081E20E94DA
:1005C0003A0260E088EC0E943A0260E086E00E9415
:1005D0003A0260E083E10E943A0260E080E20E9419
:1005E0003A0260E08CE00E943A0288EF91E090933A
:1005F00057018093560110925501109254010E94A8
:1006000037010C9471021F93CF93DF93C82F803270
:1006100040F40E94370184E30E94030382E30E94B6
:10062000030381E00E9479032C2F2052330BC90170
:1006300025E0289FE001299FD00D1124C859DF4FE4
:1006400015E0FE01849161E0880F0E943A028091DA
:100650000E01843558F48F5F80930E01115021965E
:100660001111EFCFDF91CF911F91089510920E01DC
:10067000F5CFCF93DF93EC018991882319F00E9485
:100680000303FACFDF91CF910895CDB7DEB7A097DE
:100690000FB6F894DEBF0FBECDBF87E690E00E9494
:1006A0009A010E94010280E091E00E94E70110920D
:1006B0007A0083E080937A0080917A008868809342
:1006C0007A0080917A00806480937A008091500350
:1006D000909151034AE0BE016F5F7F4F0E94A703D4
:1006E000CE0101960E94E70185E091E00E94E701BA
:1006F000EDCF8EBD0DB407FEFDCF8EB5089597FBEF
:10070000072E16F4009407D077FD09D00E949303BA
:1007100007FC05D03EF4909581959F4F0895709504
:1007200061957F4F0895AA1BBB1B51E107C0AA1F0B
:10073000BB1FA617B70710F0A61BB70B881F991F82
:100740005A95A9F780959095BC01CD010895BB27D6
:100750004A3031F4992322F4BDE2909581959F4F60
:100760000C94B303BB27FB015527AA27880F991FB9
:10077000AA1FA41710F0A41B83955051B9F7A05DD0
:10078000AA3308F0A95DA193009779F7B111B1934D
:100790001192CB010C94CC03DC01FC01672F719109
:1007A0007723E1F7329704C07C916D937083629157
:0C07B000AE17BF07C8F30895F894FFCF00
:0807BC0054657374000A0D007E
:00000001FF
