:100000000C9434000C9446000C9446000C9446006A
:100010000C9446000C9446000C9446000C94460048
:100020000C9446000C9446000C9446000C94460038
:100030000C9446000C9446000C9446000C94460028
:100040000C9446000C9446000C9448000C947600E6
:100050000C9446000C9407010C9446000C94460046
:100060000C9446000C94460011241FBECFEFD8E03C
:10007000DEBFCDBF21E0A0E0B1E001C01D92A634FB
:10008000B207E1F70E9411010C942A010C940000C0
:100090001F920F920FB60F9211242F938F939F935D
:1000A000EF93FF938091C0009091C600E091020110
:1000B000EF5FEF71209101012E17B1F08C71E09389
:1000C0000201F0E0EB5FFE4F908390910001892BDD
:1000D00080930001FF91EF919F918F912F910F904D
:1000E0000FBE0F901F90189582E0EFCF1F920F92D6
:1000F0000FB60F9211248F939F93EF93FF939091DC
:100100000401809103019817A9F0E0910301EF5FCA
:10011000EF71E0930301F0E0EB5DFE4F808180938F
:10012000C600FF91EF919F918F910F900FBE0F909E
:100130001F9018958091C1008F7D8093C100F1CFF1
:100140001092040110920301109202011092010119
:1001500097FF03C022E02093C00090789093C500E1
:100160008093C40088E98093C10086E08093C20038
:10017000089590910201809101019817B1F090913A
:1001800001019F5F9F71E92FF0E0EB5FFE4F30812F
:10019000209100019093010110920001822F90E0C4
:1001A000982F8827830F911D089580E091E008958E
:1001B000909104019F5F9F71209103012917E1F342
:1001C000E92FF0E0EB5DFE4F808390930401809176
:1001D000C10080628093C1000895CF93DF93EC014A
:1001E0008991882319F00E94D800FACFDF91CF912E
:1001F0000895CF93DF93EC01FE018491219688232B
:1002000019F00E94D800F8CFDF91CF9108951F9286
:100210000F920FB60F9211240F900FBE0F901F90E8
:10022000189587E690E00E94A0007894259A80E4D3
:1002300091E026E12B9A2C982A9A2D9A3CB51CBC69
:100240008CBD9DBD2EBD3DB53091000037FFFBCF6D
:080250003EB5F0CFF894FFCF9A
:00000001FF
