:100000000C9418010C9435010C9435010C943501B5
:100010000C9435010C9435010C9435010C94350188
:100020000C9435010C9435010C9435010C94350178
:100030000C9435010C9435010C9435010C94350168
:100040000C9435010C9435010C9437010C9460012B
:100050000C9435010C94EC010C9435010C94350191
:100060000C9435010C943501000000000000002FB5
:1000700000000007000700147F147F14242A7F2A41
:1000800012C4C81026463649552250000503000008
:10009000001C2241000041221C0014083E081408E4
:1000A000083E0808000050300010101010100060CA
:1000B00060000020100804023E5149453E00427F86
:1000C000400042615149462141454B311814127F8D
:1000D0001027454545393C4A494930017109050316
:1000E0003649494936064949291E0036360000007E
:1000F0005636000008142241001414141414004150
:100100002214080201510906324959513E7E11114B
:10011000117E7F494949363E414141227F4141227A
:100120001C7F494949417F090909013E4149497AF2
:100130007F0808087F00417F41002040413F017F48
:10014000081422417F404040407F020C027F7F0420
:1001500008107F3E4141413E7F090909063E415159
:10016000215E7F09192946464949493101017F012C
:10017000013F4040403F1F2040201F3F4038403F4C
:100180006314081463070870080761514945430068
:100190007F414100552A552A550041417F00040204
:1001A0000102044040404040000102040020545439
:1001B00054787F48444438384444442038444448C0
:1001C0007F3854545418087E0901020C5252523E92
:1001D0007F0804047800447D40002040443D007FB7
:1001E0001028440000417F40007C041804787C08FB
:1001F00004047838444444387C1414140808141453
:10020000187C7C080404084854545420043F44409B
:10021000203C4040207C1C2040201C3C4030403C86
:1002200044281028440C5050503C4464544C440022
:1002300011241FBECFEFD8E0DEBFCDBF11E0A0E09C
:10024000B1E0E6E2F8E002C005900D92A039B107F6
:10025000D9F721E0A0E9B1E001C01D92AA3EB207A2
:10026000E1F70E9430030C940A040C9400002F93D1
:100270002FB72F938F939F93EF93FF938091C0009D
:100280009091C600E0919201EF5FEF712091910192
:100290002E17A1F08C71E0939201F0E0EB56FE4F27
:1002A000908390919001892B80939001FF91EF9121
:1002B0009F918F912F912FBF2F91189582E0F1CFB1
:1002C0008F938FB78F939F93EF93FF9390919401A8
:1002D00080919301981799F0E0919301EF5FEF718E
:1002E000E0939301F0E0EB54FE4F80818093C600D1
:1002F000FF91EF919F918F918FBF8F911895809172
:10030000C1008F7D8093C100F3CF109294011092B1
:100310009301109292011092910197FF03C022E085
:100320002093C00090789093C5008093C40088E922
:100330008093C10086E08093C2000895909192015D
:10034000809191019817B1F0909191019F5F9F71F9
:10035000E92FF0E0EB56FE4F308120919001909311
:10036000910110929001822F90E0982F8827830F9F
:10037000911D089580E091E00895909194019F5F10
:100380009F71209193012917E1F3E92FF0E0EB54DD
:10039000FE4F8083909394018091C100806280938E
:1003A000C1000895CF93DF93EC018991882319F060
:1003B0000E94BD01FACFDF91CF910895CF93DF93D3
:1003C000EC01FE0184912196882319F00E94BD0161
:1003D000F8CFDF91CF9108951F920F920FB60F9231
:1003E00011242F933F934F935F936F937F938F933A
:1003F0009F93AF93BF93EF93FF932091E701222345
:10040000E9F18091D50130E0E82FF0E091E0980F1C
:10041000A901082E02C0559547950A94E2F740FFBE
:100420001FC08930E8F48093D50120917800809135
:100430007900382F9093D501EE0FFF1FE952FE4F40
:1004400031832083993071F0E091D50110927C00C6
:10045000E150E73068F4F0E0E45FFB4F0C94CF0329
:10046000892FD2CF1092D501EFCF81E080937C000D
:100470008091D601811102C00E947702FF91EF9115
:10048000BF91AF919F918F917F916F915F914F91AC
:100490003F912F910F900FBE0F901F90189582E003
:1004A000E5CF83E0E3CF84E0E1CF85E0DFCF86E0F6
:1004B000DDCF87E0DBCF2A9A08952B9A2C980E94F3
:1004C0005B022D9A1CBC80ED8CBD239A2498229A45
:1004D000259A81E08DBD08958091E801883220F44D
:1004E000885F8093E80108951092E8010895E8E795
:1004F000F0E082818064828308958EBD0DB407FE92
:10050000FDCF8EB508952998662329F0289A0E9478
:100510007D02299A08952898FACF0F931F93CF93BD
:10052000DF93D0E0C0E004E510E08091E90198019C
:10053000281B3109C217D30734F461E080E00E9420
:1005400083022196F2CF1092E901DF91CF911F91A2
:100550000F910C946C02CF93DF93C0ECDFE061E06D
:1005600080E00E9483022197D1F70E948D02809142
:10057000E8018111FACFDF91CF9108950E945B02CB
:10058000209A219A80E89EE300000197E9F72A98D3
:1005900080E89EE300000197E9F70E945B020E9459
:1005A0005D02299A60E081E20E94830260E088ECAB
:1005B0000E94830260E086E00E94830260E083E1A3
:1005C0000E94830260E080E20E94830260E08CE08F
:1005D0000E9483020C94AB021F93CF93DF93C82F2A
:1005E000803240F40E94AB0284E30E94EC0282E37A
:1005F0000E94EC0281E00E947D022C2F2052330BDE
:10060000C90125E0289FE001299FD00D1124C85978
:10061000DF4F15E0FE01849161E0880F0E948302A4
:100620008091E901843558F48F5F8093E90111507E
:1006300021961111EFCFDF91CF911F910895109264
:10064000E9010E946C02F3CFCF93DF93EC01899113
:10065000882319F00E94EC02FACFDF91CF91089520
:10066000CDB7DEB7A0970FB6F894DEBF0FBECDBFF3
:1006700080EF8AB90E94BE0288E791E00E942403BD
:100680000E948D028AE791E00E9424030E948D025D
:100690008CE791E00E9424030E948D028EE791E096
:1006A0000E9424030E948D028EE791E00E942403A1
:1006B0000E948D0280E891E00E9424030E948D0236
:1006C00087E690E00E948501789483E891E00E949B
:1006D000D20110927A0083E080937A0080917A00B0
:1006E000886880937A000E9477028091E701816098
:1006F0008093E7011092D6010E9477028091E70172
:1007000082608093E7011092D60121E00FEF94E020
:10071000E0EE8FE08E0F8BB989B18F708F3021F4AE
:10072000EE0FE05F9150A9F7E80FE757E83780F444
:10073000F0E0E050FF4F10811A3751F0011741F0FF
:10074000211106C00E94AB02812F0E94EC02012FF2
:100750008091D7019091D801E090D901F090DA0111
:100760004AE0BE016F5F7F4F0E94D503CE01019624
:100770000E94D20188E891E00E94D2014AE0BE01C5
:100780006F5F7F4FC7010E94D503CE0101960E9483
:10079000D2018CE891E00E94D20120E0B8CFEE0FA8
:1007A000FF1F0590F491E02D0994BB274A3031F4E6
:1007B000992322F4BDE2909581959F4F0C94E1031B
:1007C000BB27FB015527AA27880F991FAA1FA4172B
:1007D00010F0A41B83955051B9F7A05DAA3308F01F
:1007E000A95DA193009779F7B111B1931192CB0153
:1007F0000C94FA03DC01FC01672F71917723E1F778
:10080000329704C07C916D9370836291AE17BF07DD
:10081000C8F30895F894FFCF35024F0251025302F6
:06082000550257025902C7
:10082600347A7A7A357A42367A7A7A7A7A7A7A7A29
:100836007A7A7A7A7A7A7A7A7A7A7A7A7A7A7A7A12
:100846007A7A7A7A7A7A7A7A7A7A7A7A7A7A7A7A02
:100856007A7A7A7A7A7A7A7A7A7A7A7A7A7A7A7AF2
:10086600377A7A7A387A43397A7A7A7A7A7A7A7ADF
:100876007A7A7A7A7A7A7A7A7A7A7A7A7A7A7A7AD2
:100886002A7A7A7A307A44237A7A7A7A7A7A7A7AE9
:10089600317A7A7A327A413342004D004300500071
:1008A6003A29005465737400207C20000A0D00006C
:00000001FF
